:020000040800F2
:10000000D804012031030008C9370008C32C0008B8
:10001000B9370008AD090008354D000800000000A0
:100020000000000000000000000000007102000855
:10003000390B000800000000CD020008454500080B
:100040004B0300084B0300084B0300084B03000858
:100050004B0300084B0300084B0300084B03000848
:100060004B0300084B0300084B0300084B03000838
:100070004B030008890A00084B0300084B030008E3
:100080004B0300084B0300084B0300084B03000818
:100090004B0300084B0300084B0300084B03000808
:1000A0004B0300084B0300084B0300084B030008F8
:1000B0004B0300084B0300084B0300084B030008E8
:1000C0004B0300084B0300084B0300084B030008D8
:1000D0004B0300084B0300084B0300084B030008C8
:1000E0004B0300084B0300084B0300084B030008B8
:1000F0004B030008214600084B0300084B0300088F
:100100004B0300084B0300084B0300084B03000897
:10011000214900084B0300084B0300084B0300086B
:100120004B0300084B0300084B0300084B03000877
:100130004B03000800000000000000004B03000813
:100140004B0300084B0300084B0300084B03000857
:100150004B0300084B0300084B0300084B03000847
:100160004B0300084B0300084B0300084B03000837
:100170004B0300084B0300080000000000000000D3
:100180004B0300084B03000800F002F800F060F891
:100190000AA090E8000C82448344AAF10107DA45E2
:1001A00001D100F055F8AFF2090EBAE80F0013F0D4
:1001B000010F18BFFB1A43F001031847C88800005D
:1001C000E88800000A444FF0000C10F8013B13F0DF
:1001D000070408BF10F8014B1D1108BF10F8015BA0
:1001E000641E05D010F8016B641E01F8016BF9D193
:1001F00013F0080F1EBF10F8014BAD1C0C1B09D1EA
:100200006D1E58BF01F801CBFAD505E014F8016B5B
:1002100001F8016B6D1EF9D59142D6D370470000ED
:100220000023002400250026103A28BF78C1FBD8FF
:10023000520728BF30C148BF0B6070471FB508F098
:10024000E0FA9DE8030000F0D9F91FBD10B510BD1C
:1002500000F040FA1146FFF7F1FF06F06DFA00F0EA
:100260005EFA03B4FFF7F2FF03BC00F08FFA000060
:100270002C4B19680868B0E8F04F80F30988BFF389
:100280006F8F4FF0000080F311887047000000006E
:1002900008480068006880F308884FF0000080F389
:1002A000148862B661B6BFF34F8FBFF36F8F00DF64
:1002B00000BF00BF08ED00E0DFF80C00016841F46A
:1002C00070010160704700BF88ED00E0EFF3098026
:1002D000BFF36F8F134B1A681EF0100F08BF20ED8D
:1002E000108A20E9F04F106009B44FF0500080F3FD
:1002F0001188BFF34F8FBFF36F8F07F0FFFB4FF0F5
:10030000000080F3118809BC19680868B0E8F04F54
:100310001EF0100F08BFB0EC108A80F30988BFF3FD
:100320006F8F704734000020EFF3058070470000A6
:100330000948804709480047FEE7FEE7FEE7FEE779
:10034000FEE7FEE7FEE7FEE7FEE7FEE704480549B5
:10035000054A064B70470000054600088901000861
:10036000D8E40020D8040120D8F40020D8F40020DC
:1003700070B5064600F026F9056806F10B0020F07E
:100380000704B4429CBF002070BD2B466A68BAB116
:100390001068A04210D304F1080188423CBF5068A5
:1003A000586007D35168101941601168091B01603A
:1003B00058601460101D70BD13465268002AE7D1C2
:1003C0002146284600F006F90028DED170BD70B540
:1003D0000446051F00F0F6F80068002C14BF4468BE
:1003E00070BD002C18BFAC423CBF20466468F8D3F7
:1003F00001680A18AA4218BF456003D12A68054659
:100400001144016028684119A1421CBF6C6070BD95
:100410006168696021680844286070BD53EA020C75
:1004200000F069802DE9F04B4FF00006002B1FBF54
:10043000B3FA83F503FA05F424FA05F65E4012BF19
:100440001643B2FA82F502FA05F4C5F120051EBF83
:1004500022FA05FC44EA0C04203556EA044C4FEA23
:10046000144418BF641C4FF000084FF0000990427C
:1004700071EB030C39D3002919BFB1FA81F701FAE6
:1004800007F6B0FA80F700FA07F6C7F120071EBF9B
:1004900020FA07FC46EA0C062037B6FBF4FCA7EB73
:1004A0000507103F07F01F0BCBF120060CFA0BFBE2
:1004B0002CFA06F644BFB3460026202FA4BF5E46A2
:1004C0004FF0000B5BEA060C08BF4FF0010B19EB75
:1004D0000B09ABFB027C48EB0608C01B06FB02CCF9
:1004E0000BFB03CC71EB0C01C1E70B460246414606
:1004F0004846BDE8F08B13B54FF000004FF0000107
:10050000AFF30080BDE81C40704710B5203AC0F042
:100510000B80B1E81850203AA0E81850B1E8185004
:10052000A0E81850BFF4F5AF5FEA027C24BFB1E841
:100530001850A0E8185044BF18C918C0BDE81040B2
:100540005FEA827C24BF51F8043B40F8043B08BFBB
:100550007047D20728BF31F8023B48BF11F8012B82
:1005600028BF20F8023B48BF00F8012B70474FF02E
:10057000000200B5134694469646203922BFA0E8F3
:100580000C50A0E80C50B1F12001BFF4F7AF0907FF
:1005900028BFA0E80C5048BF0CC05DF804EB8900F0
:1005A00028BF40F8042B08BF704748BF20F8022B33
:1005B00011F0804F18BF00F8012B7047704770474B
:1005C000704700000048704780E400207047704783
:1005D0007047704738B504460A4600206946AFF3B5
:1005E0000080002808BF38BD02460099204600F070
:1005F0004FF8012038BD012000F064B8F8B5AFF322
:100600000080054600200C46102000BF0646A819B1
:10061000A0420DD9324669460020AFF300800700A2
:1006200008BF00F04FF80098A04218BF0546C41953
:10063000FFF7C8FF05600746F01D20F007004619C8
:10064000284600F00AF8B44208BFF8BDA21B3146A4
:100650003868BDE8F84000F01BB800210160C0E92F
:10066000011070471020704710B500F00DF80068B9
:1006700010BD10B5044600F007F8046010BD00007E
:100680000048704778E400200048704778E4002074
:10069000034640688C46002818BF88423CBF03468A
:1006A0004068F8D318681844884207D00CF103005A
:1006B00020F00700001D411A521A0146081D0A6069
:1006C000FFF785BE10B500F039F8BDE8104000F026
:1006D0002FB870477546FFF7D3FFAE460500694651
:1006E000534620F00700854618B020B5FFF72EFED0
:1006F000BDE820404FF000064FF000074FF0000823
:100700004FF0000B21F00701AC46ACE8C009ACE8A3
:10071000C009ACE8C009ACE8C0098D46704710B507
:100720000446AFF300802046BDE81040FFF799BDB6
:10073000002801D000F02AB87047000010B5012849
:1007400005D0002103A000F027F8012010BD09A169
:10075000F8E7000053494752544D454D3A204F7534
:1007600074206F662068656170206D656D6F7279A9
:10077000000000003A2048656170206D656D6F7261
:100780007920636F72727570746564000149182076
:10079000ABBEFEE72600020070B505460C460A20F7
:1007A00000E06D1C00F011F835B128780028F8D170
:1007B00002E0641C00F009F814B120780028F8D198
:1007C000BDE870400A20AFF3008008B569468DF897
:1007D00000000320ABBE08BD464910B54A6822F4AC
:1007E00040324A604A6843681A434A6001684A686E
:1007F00022F480724A6001684A68036942EA03226F
:100800004A6001684A6822F040724A6001684A689A
:1008100083681A434A6001688A6822F400628A6029
:1008200001688A68C3681A438A60816A6FF07062DF
:10083000D14201688A6822F070628A6001688A6821
:100840000CD0836A1A438A6001688A6822F0405299
:100850008A6001688A68C36A1A4301E022F0405244
:100860008A6001688A6822F002028A6001688A68E8
:10087000037E42EA43028A6090F820100029016852
:100880004A680FD042F400624A6001684A6822F464
:1008900060424A6001684A68174C436A04EB43337C
:1008A0001A4301E022F400624A600168CA6A22F435
:1008B0007002CA620168CA6A838B104C04EB03534E
:1008C0001A43CA6201688A6822F400728A60016869
:1008D0008A6890F8303042EA43228A6001688A6868
:1008E00022F480628A6001688A68406942EA802056
:1008F000886010BD0023014000E0FFFF0000F0FF12
:1009000010B504462DED048BB0EE608A18EE100A87
:1009100024499FED239AF0EE408A884208DD9FED3E
:10092000220A28EE000AB4EEE80AF1EE10FA03DB20
:100930000020BDEC048B10BD21EE090A04F0DCFEA2
:10094000F0EE400AF0EE609AC8EE880A89EE200ABE
:1009500005F024F9B0EE002AF7EE000A69EE822ACB
:10096000F0EE601A20EE001A012042EE801A31EEFD
:10097000813AC0EE831A21EE213A84ED003A31EE3D
:10098000603A42EEC00A23EE022A30EE810A22EEDD
:10099000212A20EE210A84ED012A84ED020AC8E70B
:1009A000DB0F494017B7D13866660640FEE7000006
:1009B0009FED081A80ED091A80ED081A80ED071ADC
:1009C00080ED0C1A80ED0B1A80ED0A1A80ED0D1ADD
:1009D00000F03DB8000000000178A9B3D0ED080A8E
:1009E000C0ED090A90ED071A80ED081AD0ED011A42
:1009F00021EE800AD0ED021A01EEC10AD0ED031AF1
:100A000001EEE00AF0EE001A80ED070A01EE210A7D
:100A100030EE200AD0ED0B0AC0ED0C0A90ED0A1A58
:100A200080ED0B1A90ED042A22EE000A90ED052AC3
:100A300002EE410A90ED062A02EE600A80ED0A0AF3
:100A400001EE210A30EE200A80ED0D0A704710B544
:100A500004462DED028BB0EE608AF0EE408AB4EED3
:100A6000001A001DFFF74CFF2070B5EE081AF0EEDB
:100A7000480AB0EE680A04F11000FFF741FF207841
:100A8000BDEC028B10BD0000014800F079BA0000F7
:100A90005409002001681823CAB2103AB2FBF3F2DD
:100AA000054B6FF30901032A9B5CC36500D9091D3F
:100AB0008165084670470000DC88000810B50146D3
:100AC00000208B698A6A4FF0C07453B1B3F5005FA0
:100AD00015D072B1012A0CD0022A0AD0032A09D1FA
:100AE00004E01AB1012A06D0022A03D1C96AC90159
:100AF00000D5012010BDC96AA142FAD010BD002A5C
:100B0000F7D0012AF2D0022AF3D0032AF3D010BD85
:100B100030B50468256825F4802525600468636085
:100B20008368402B036803D099600068C26030BDC1
:100B30009A600068C16030BD704772B6FEE7000081
:100B400078B50024009490F83C20012A19D00122A5
:100B500080F83C200A6807230568092A13D9EE6843
:100B60000A3A02EB420293409E43EE600B788A6899
:100B70000A3B03EB43039A400368DD682A43DA60CB
:100B800010E0022078BD2E6902EB420293409E43A2
:100B90002E610B788A6803EB43039A4003681D6952
:100BA0002A431A614A681F23072A13D205686E6B0D
:100BB000521E02EB820293409E436E630B790A88B9
:100BC0005B1E92B203EB83039A4003685D6B2A437A
:100BD0005A6327E005680D2A12D22E6BD21F02EB52
:100BE000820293409E432E630B790A88DB1F92B2E8
:100BF00003EB83039A4003681D6B2A431A6311E0D9
:100C0000EE6A0D3A02EB820293409E43EE620B794C
:100C10000A880D3B92B203EB83039A400368DD6AB6
:100C20002A43DA62164B0568144A9D4206D10D68C4
:100C3000122D03D1556845F48005556005689D4225
:100C400018D10B68102B01D0112B13D1536843F42A
:100C500000035360096810290CD10A490A4A09683F
:100C6000B1FBF2F101EB8101490000E0491E009166
:100C70000029FBD180F83C40002078BD00230140D2
:100C8000002001403000002040420F0070B50400F9
:100C90004FF0000503D0206C002610B107E00120C2
:100CA00070BD204600F01CF8666484F83C60206C3F
:100CB000C00610D4206C20F4885040F0020020645C
:100CC0002046FFF789FD6664206C20F0020040F0AA
:100CD0000100206400E0012584F83C60284670BDD6
:100CE00010B586B0044614216846FFF740FC114950
:100CF000206888421CD110480021026842F48072AA
:100D00000260006800F4807005900B481438026897
:100D100042F001020260006800F0010005903120FD
:100D200000900320CDE901016946044800F0D0FAA3
:100D300006B010BD002001404438024000000240CF
:100D400070B5040003D094F8200010B104E0012035
:100D500070BD204600F082F82068016841F0010172
:100D6000016000F0B7FB0546052604E000F0B2FB89
:100D7000401B0A2811D820684068C007F6D02068B8
:100D8000016821F00201016000F0A4FB05460BE0C0
:100D900000F0A0FB401B0A2806D9606A40F400302E
:100DA000606284F82060D2E7206840688007EFD452
:100DB000207E0128206801683DD021F0800101607B
:100DC000607E01282068016838D021F04001016070
:100DD000A07E01282068016833D021F02001016045
:100DE000E07E0128206801682ED041F010010160EA
:100DF000207F01282068016829D021F008010160C6
:100E0000607F01282068016824D021F0040101607E
:100E1000D4E902010843D4E904121143084361688C
:100E2000491E08432168C86100206062012084F8DF
:100E30002000002070BD41F08001C0E741F040017A
:100E4000C5E741F02001CAE721F01001CFE741F0EA
:100E50000801D4E741F00401D9E7000010B586B0DD
:100E6000044614216846FFF782FB14492068884233
:100E700021D113480021026842F00072026000682C
:100E800000F0007005900E481038026842F002022F
:100E90000260006800F0020005904FF4407000907E
:100EA0000220CDE901010320039009200490694646
:100EB000044800F00DFA06B010BD000000640040C8
:100EC00040380240000402402DE9F0410446876D9D
:100ED00000F000FB064694F835000025022806D0F5
:100EE0008020606584F834500120BDE8F0812068DE
:100EF000016821F0160101602068416921F080013C
:100F00004161206C08B9A06C20B12068016821F013
:100F1000080101602068016821F0010101600CE016
:100F200000F0D8FA801B052807D92020606503202F
:100F300084F8350084F83450D7E720680068C0078B
:100F4000EED194F85C103F208840B860012084F80E
:100F5000350084F834500020C7E790F83510022996
:100F600003D08021416501207047052180F83510AC
:100F70000068016821F00101016000207047000055
:100F80002DE9F84304464FF00009CDF8009063487E
:100F90004FF41651A56D0068B0FBF1F72E6894F878
:100FA0005C10082000FA01F131420FD021680A6874
:100FB00052070BD50A6822F004020A6094F85C100C
:100FC0008840A860606D40F00100606594F85C1096
:100FD0004FF0010808FA01F0304208D02168496951
:100FE000090604D5A860606D40F00200606594F8C1
:100FF0005C1004208840304208D0216809688907C5
:1010000004D5A860606D40F00400606594F85C1041
:1010100010208840304218D021680968090714D58B
:10102000A86020680168490304D50068000308D55A
:10103000A16C07E00168C90503D4016821F008012B
:101040000160216C09B12046884794F85C1020208B
:101050008840304231D021680968C9062DD5A86082
:1010600094F8350005282068016806D0490347D563
:10107000006800031DD4616C1CE021F016010160C2
:101080002068416921F080014161206C08B9A06CA1
:1010900020B12068016821F00801016094F85C101B
:1010A0003F208840A86084F8358084F83490216D12
:1010B0001FE0E16B09B120468847606D00282BD006
:1010C000606DC00714D0052084F8350020680168E1
:1010D00021F0010101600098401C0090B84203D843
:1010E00020680068C007F6D184F8358084F8349011
:1010F000E16C002910D001B02046BDE8F04308475C
:101100000168C905D5D4016821F01001016084F897
:10111000358084F83490CCE7BDE8F88330000020B7
:101120002DE9F041044600F0D5F906465CB10220F5
:1011300084F83500002584F834502068016821F0D7
:10114000010101600DE00120BDE8F08100F0C2F96D
:10115000801B052805D920206065032084F8350010
:10116000F2E720680068C007F0D1226811682048C3
:101170000140D4E901031843D4E90336334318434B
:1011800063691843A3691843E3691843236A184342
:101190000843616A042903D1D4E90B1319430843B6
:1011A000106020684069666A20F0070130460E43EF
:1011B000012704280CD1A06A0643E06A40B120460A
:1011C000FFF77CFC20B14020606584F83570BAE7F9
:1011D000206846612046FFF75DFC94F85C203F21C3
:1011E00091408160656584F835700020ACE70000AF
:1011F0003F8010F02DE9F0410446866D90F83400F0
:10120000002501280DD0012084F8340094F83570B1
:101210000020012F07D084F8340002252846BDE8BD
:10122000F0810220FBE7022784F8357060652046D4
:10123000FFF76EFC94F85C103F208840B060206897
:10124000016841F016010160206C20B1206801683E
:1012500041F0080101602068016841F0010101606E
:10126000DCE7000070B5044600F034F90546601C68
:1012700002D004480078044400F02CF9401BA0423E
:10128000FAD370BD2400002000220CE0002100BF32
:1012900000BF00BF00BF00BF00BF491C89B20729C3
:1012A000F5D3521C92B28242F0D3704700220CE078
:1012B000002100BF00BF00BF00BF00BF00BF491C2E
:1012C00089B20729F5D3521C92B28242F0D37047FB
:1012D0002DE9F84FDFF8BCA10022012503264FF0CD
:1012E0000F090AF1040BAAF1040E00BF0B6805FAFE
:1012F00002F42340A34270D10F7907F00307012FB6
:1013000001D0022F16D187684FEA420806FA08FC7E
:1013100027EA0C07D1F80CC00CFA08FC4CEA070CC1
:10132000C0F808C04768A7430C79C4F30014944080
:101330003C4344600C79E443A4070AD0C4684FEAF4
:10134000420C06FA0CF7BC438F6807FA0CF72743E8
:10135000C7600C7904F00304022C12D1D40800EB0E
:10136000840CDCF820405707FF0E09FA07F824EA3E
:101370000804D1F8108008FA07F848EA0408CCF805
:10138000208004684FEA420C06FA0CF7BC430F7940
:1013900007F0030707FA0CF7274307604C6814F4BB
:1013A000403F70D03C4C276847F480472760246852
:1013B00022F0030704F480440094384C07EB040C3B
:1013C000DCF8084897074FEA177809FA08F7BC4392
:1013D000334FB84202D1002724E054E0314FB842E5
:1013E00001D101271EE0304FB84201D1022719E098
:1013F0002E4FB84201D1032714E02D4FB84201D13E
:1014000004270FE02B4FB84201D105270AE02A4FED
:10141000B84201D1062705E0284FB84201D107277D
:1014200000E0082707FA08F72743CCF80878DAF82D
:1014300000405746D1F804C09C435FEACC2C00D54D
:101440001C433C60DBF800405F46D1F804C09C437D
:101450005FEA8C2C00D51C433C60DEF800407746E8
:10146000D1F804C09C435FEA8C3C00D51C433C602F
:10147000084F083F3C68D1F804C09C435FEACC3C6D
:1014800000D51C433C60521C102AFFF42FAFBDE86E
:10149000F88F0000083C0140443802400030014011
:1014A000000002400004024000080240000C02401C
:1014B000001002400014024000180240001C0240CC
:1014C0000069084000D0012070470AB1816170476F
:1014D0000904FBE7014880687047000024000020F1
:1014E000024881680278114481607047240000201E
:1014F0000B4810B5016841F400710160016841F4C6
:1015000080610160016841F480710160032000F096
:101510009FF80F2000F006F800F050F8002010BDF2
:10152000003C024030B505461F4887B000240168E2
:1015300041F480710160006806A900F48070009099
:1015400001A800F031F90498A8B100F04DF940006D
:101550001649174AB0FBF1F11648491E026040F2E5
:10156000E732C0E90324C0E90114846100F0A2FE5F
:10157000040003D015E000F037F9E9E70D4800F06A
:10158000F3FE04000DD12D2000F034F8102D07D209
:10159000002229462D2000F03BF80748056000E0B6
:1015A000012407B0204630BD4038024040420F00C1
:1015B00000200040B4090020280000200C4882B020
:1015C000016841F480410160006800F480400090AF
:1015D0000748001F016841F0805101600068002247
:1015E00000F0805000900F21901E02B000F010B863
:1015F00044380240002809DB00F01F02012191401D
:101600004009800000F1E020C0F8001170470000A0
:10161000F0B40E4B1B680C46C3F30223C3F107055D
:10162000042D00D90425191D072901D2002300E04B
:10163000DB1E012606FA05F1491E214099409E4015
:10164000761E16403143F0BC03F021BC0CED00E0E7
:10165000064900F0070208684FF6FF03184040EA09
:101660000220034A10430860704700000CED00E0C0
:101670000000FA052DE9F0470E46050065D0DFF8B9
:101680001481D8F80000F7B200F00700B04207D28A
:1016900088F80070D8F8000000F00700B04254D17C
:1016A00028683D4C810712D5400703D5206840F4D7
:1016B000E05020602878000703D5206840F460409F
:1016C00020602068A96820F0F00008432060287896
:1016D000C0072DD0304968680839012812D0022887
:1016E00013D0032811D00968890700292DDA216851
:1016F00021F0030101432160FFF7ECFE814641F236
:10170000883A0EE009688903EFE709688901ECE788
:10171000FFF7E0FEA0EB0901514502D90320BDE827
:10172000F0872068696800F00C00B0EB810FEFD102
:10173000D8F80010404601F00701B14207D9077000
:10174000006800F00700B04201D00120E7E72878E8
:10175000400705D52068E96820F4E0500843206080
:101760002878000706D52068296920F4604040EAFF
:10177000C100206000F058F82168084AC1F3031145
:10178000515CC8400649086006480068FFF7CAFE79
:101790000020C4E7003C024008380240E48800080A
:1017A00030000020280000200F2202600C4A13683D
:1017B00003F003034360136803F0F00383601368CE
:1017C00003F4E053C36012684FF4E05303EAD2021B
:1017D00002610448006800F00700086070470000DC
:1017E00008380240003C0240044805490068096886
:1017F000044AC1F38221515CC84070473000002088
:1018000008380240F488000804480549006809685F
:10181000044AC1F34231515CC84070473000002097
:1018200008380240F4880008154810B5006810F028
:101830000C02144813D04110042A0FD0082A0ED1EC
:101840000F4C241F2268236802F03F025B0207D579
:101850002068C0F38810A0FB010106E0084610BD17
:101860002168C1F38811A1FB00010023FEF7D6FD1A
:101870002168C1F30141491C4900B0FBF1F010BDE2
:10188000083802400024F4002DE9F84F04006ED01F
:101890002078DFF84C93C007A9F104054AD009F17C
:1018A00004000168C1F38101012908D00068C0F378
:1018B000810002280AD1D9F80000400206D5286824
:1018C000800337D560680028E1D033E06068B0F568
:1018D000803F10D0B0F5A02F286810D020F48030C1
:1018E0002860286820F4802028606068A8B1FFF78D
:1018F000F1FD06460DE0286840F48030F4E740F43E
:1019000080202860F7E700BFFFF7E4FD801B642814
:1019100073D828688003F7D50CE0FFF7DBFD064697
:1019200005E000BFFFF7D6FD801B6428F0D82868CB
:101930008003F7D42078DFF8AC8280074FF0000AEC
:101940003ED5A748001D016811F00C0F08D00068B3
:10195000C0F3810002280BD1D9F80000400207D45F
:101960002868800716D5E068012800D112E033E12D
:10197000E068B8B10120C8F80000FFF7ABFD0646EB
:1019800005E000BFFFF7A6FD801B0228C0D828682D
:101990008007F7D52868216920F0F80040EAC100E7
:1019A00028600DE0C8F800A0FFF794FD064604E0AB
:1019B000FFF790FD801B02281FD828688007F7D406
:1019C0002078000722D5864F87486169703771B14A
:1019D00001210160FFF77EFD064604E0FFF77AFD76
:1019E000801B022809D838688007F7D50EE0C0F8B8
:1019F00000A0FFF76FFD064605E082E0FFF76AFDF5
:101A0000801B02287DD838688007F7D420784007EB
:101A100068D5DFF8CCB100270BF13C0BDBF80000F8
:101A2000C0000BD4DBF8001041F08051CBF800105F
:101A3000DBF80000012700F0805000906B4E30680A
:101A4000C00510D4306840F480703060FFF742FD6C
:101A5000009005E0FFF73EFD0099401A022850D89B
:101A60003068C005F6D55E4EA0686C3601280FD0F0
:101A70000528306810D020F001003060306820F078
:101A800004003060A068B8B1FFF724FD00900FE0BB
:101A9000306840F00100F4E740F004003060F7E700
:101AA000FFF718FD0099411A41F28830814266D84B
:101AB00030688007F4D50EE0FFF70CFD009007E0DA
:101AC000FFF708FD0099411A41F28830814256D84B
:101AD00030688007F4D42FB1DBF8001021F080517A
:101AE000CBF80010A069C8B33D49091D0968C1F3CE
:101AF000810102294AD00228504607D0C8F8600068
:101B000000E03CE0FFF7E6FC04463BE04746C8F84F
:101B10006000FFF7DFFC064605E000BFFFF7DAFCD8
:101B2000801B02282BD828688001F7D4D4E907014C
:101B30000843A16A2E4A490802EB0141626A41EA60
:101B40008211084394F82C1040EA0161C9F8001092
:101B500001203866FFF7BEFC044606E03EE000BF09
:101B6000FFF7B8FC001B022809D828688001F7D5C8
:101B700034E000BFFFF7AEFC001B022802D90320AF
:101B8000BDE8F88F28688001F4D427E00128F7D059
:101B9000D9F80000E26900F4800191421CD1226A68
:101BA00000F03F01914217D147F6C071626A0140CF
:101BB000B1EB821F10D1A26A4FF0FF3300F4403125
:101BC00003EB5202B1EB024F06D194F82C1000F057
:101BD0007060B0EB016F01D00120D1E70020CFE7AA
:101BE0000438024000004742800E47420070004027
:101BF0000000FFFF90F85100704770B5040009D055
:101C0000606A002540B125616561A56294F85100C4
:101C100040B10CE0012070BD6068B0F5827FF4D067
:101C2000E561F2E784F85050204600F045F80220C4
:101C300084F851002068016821F040010160A0880B
:101C4000218900F4827001F404410843A18901F460
:101C500000610843217C01F002010843217D01F06D
:101C600001010843218B01F400710843217F01F039
:101C70003801084394F8201001F080010843218DB9
:101C800001F40051084321680860A069042101EAB9
:101C9000104094F8241001F01001084321684860B6
:101CA0002068C16921F40061C1616565012084F883
:101CB0005100002070BD000010B586B0044614210C
:101CC0006846FEF754FC13492068884220D1124828
:101CD0000021026842F480520260006800F48050E3
:101CE00005900D481438026842F002020260006854
:101CF00000F002000590382000900220CDE901019B
:101D0000032003900520049069460448FFF7E0FA99
:101D100006B010BD003001404438024000040240CB
:101D20002DE9F84F044690F851001D4616460F461F
:101D3000012838D160684FF00408B0F5827F01D1E6
:101D4000A06830B3FFF7C6FB8246002F75D0002E87
:101D500073D094F85000012825D04FF0010984F881
:101D6000509084F851804FF00008C4F85480A76365
:101D7000A687E687C4F83080A4F83480A4F83680BB
:101D8000C4F84080C4F84480A068B0F5004F0CD07F
:101D900015E084F85180009313460A46204600F06F
:101DA0001CF9BDE8F88F0220FBE72068016821F0EC
:101DB000400101602068016821F4804101602068D1
:101DC0000168490603D4016841F040010160E06800
:101DD000C0B134E020688168C90709D0007BA16BDD
:101DE0000870A06B401CA063E08F401EE08709E0F4
:101DF000FFF770FBA0EB0A00A84202D3681C01D0D9
:101E000032E085B3E08F0028E4D11BE020688168D0
:101E1000C90709D0C068A16B0880A06B801CA063B3
:101E2000E08F401EE0870AE0FFF754FBA0EB0A00BA
:101E3000A84203D3681C02D016E012E09DB1E08FE7
:101E40000028E3D152462946204601F0A3FD08B1FF
:101E50002020606584F8519084F85080606D0028DF
:101E60009FD001209DE7FFE784F8519084F85080CF
:101E7000032096E72DE9F84F984616468A46044611
:101E8000FFF728FB814694F8510001281ED1BAF1D2
:101E9000000F73D0002E71D094F85000012815D097
:101EA000012784F85070032084F8510000256565EF
:101EB000C4F830A0A686E686A563A587E587656495
:101EC0002564A068B0F5004F03D00CE00220BDE807
:101ED000F88F2068016821F04001016020680168E6
:101EE00041F48041016020680168490603D401681B
:101EF00041F040010160E068B0F5006F606803D018
:101F000048B3012E27D047E008B1012E1FD1206B26
:101F100021680088C86006E020688168890709D5C3
:101F2000216B0988C160206B801C2063E08E401EFD
:101F3000E0860CE0FFF7CEFAA0EB0901414503D3A0
:101F4000B8F1FF3F03D035E0B8F1000F32D0E08E9A
:101F50000028E1D123E0206B21680078087306E0B7
:101F60002068816889070AD5216B09780173206B85
:101F7000401C2063E08E401EE0860DE02BE0FFF762
:101F8000A9FAA0EB0901414503D3B8F1FF3F03D003
:101F900010E0B8F1000F0DD0E08E0028E0D14A46E5
:101FA0004146204601F024FD08B120206065A0686C
:101FB00030B109E084F8517084F85050032086E76E
:101FC0002068C1688068009084F8517004F8505F00
:101FD00060680028F3D0012079E72DE9FF4F81B038
:101FE0001D46934604464FF001090E9EFFF772FA14
:101FF000074694F851006168012806D0B1F5827F48
:102000003CD1A168C9BB042838D10298002871D0FE
:10201000BBF1000FFBD0002DF9D094F8500001283F
:102020002CD04FF0010A84F850A094F851000428F5
:1020300002D0052084F851004FF00008C4F8548005
:10204000C4F838B0E587A58702992163E586A5869F
:10205000C4F84080C4F8448020680168490603D46D
:10206000016841F040010160E068B0F5006F606810
:1020700008D0F0B3012D49D081E0FFE7022005B080
:10208000BDE8F08F08B1012D39D1206B216800889F
:10209000C860206B801C2063E08E401EE0862EE02E
:1020A0002068816889070FD5E18E69B1B9F1010F08
:1020B0000AD1216B0988C160206B801C2063E08EEF
:1020C000401EE0864FF0000920688168C9070CD0E7
:1020D000E18F51B1C068A16B0880A06B801CA06328
:1020E000E08F401EE0874FF00109FFF7F3F9C01BB6
:1020F00001E00BE067E0B04201D3701C50D1E08EEC
:102100000028CDD1E08F0028CAD13EE0206B2168A5
:1021100000780873206B401C2063E08E401EE08630
:102120002DE02068816889070FD5E18E69B1B9F18A
:10213000010F0AD1216B09780173206B401C2063C9
:10214000E08E401EE0864FF0000920688168C907D4
:102150000CD0E18F51B1C068A16B0870A06B401C1E
:10216000A063E08F401EE0874FF00109FFF7B2F94E
:10217000C01BB04202D3701C01D011E086B1E08ECA
:102180000028CED1E08F0028CBD13A4631462046F8
:1021900001F02EFC50B12020606584F8508012E0E0
:1021A00084F851A084F85080032068E7A06818B92B
:1021B0002068C1688068009084F851A084F850803D
:1021C000606D0028F1D0012059E77047704710B5C5
:1021D00090F83C20012A22D0012280F83C20CA68D5
:1021E0008C6822F4407222434C6822F480622243BD
:1021F0000C6822F4006222430C6922F480522243CC
:102200004C6922F400522243C969002322F480421F
:102210000A4301684A6480F83C30002010BD022067
:1022200010BD000070B590F83C20012A32D0012486
:1022300080F83C40022280F83D2003685A689D687F
:1022400022F070060A6832435A60134B02689A42C1
:1022500014D0B2F1804F11D0104B9A420ED0104BD7
:102260009A420BD00F4B9A4208D00F4B9A4205D09E
:102270000E4B9A4202D00E4B9A4204D1496825F087
:1022800080031943916080F83D40002180F83C10A4
:10229000084670BD022070BD0000014000040040EF
:1022A00000080040000C00400004014000400140D4
:1022B0000018004010B5040003D094F83D0010B1A0
:1022C00007E0012010BD002084F83C00204600F00B
:1022D0001FF8022084F83D00211D206802F0AEF9AD
:1022E000012084F8460084F83E0084F83F0084F81A
:1022F000400084F8410084F8420084F8430084F8E8
:10230000440084F8450084F83D00002010BD000022
:1023100008B500681149884209D11148016841F0A7
:1023200002010160006800F00200009008BD0D4944
:102330008842FBD10A48001D016841F0020101609A
:102340000068002200F0020000900F212D20FFF70E
:102350005FF9BDE808402D20FFF74CB900040040AC
:10236000403802400004014090F83D10012901D09E
:1023700001207047022180F83D100168CA6842F0D0
:102380000102CA6000681149884214D0B0F1804F40
:1023900011D00F4988420ED00E4988420BD00E4909
:1023A000884208D00D49884205D00D49884202D0A4
:1023B0000C49884204D1816801F00701062903D045
:1023C000016841F0010101600020704700000140F8
:1023D0000004004000080040000C004000040140E0
:1023E000004001400018004070B5044690F83C00E1
:1023F0000025012817D0012684F83C60022084F8CB
:102400003D002068826822F0770222F47F428260D9
:102410000868502838D00DDC20284FD005DC90B358
:10242000102811D14AE0022070BD302846D0402843
:102430000AD13BE060282FD070280DD0B0F5805F26
:1024400003D0B0F5005F12D0012584F83D60002074
:1024500084F83C00284670BDCB68D1E90121206892
:1024600002F065F92068816841F0770109E0CB68E6
:10247000D1E90121206802F05AF92068816841F40D
:1024800080418160E1E719E0CA684968206802F08C
:1024900023FA5021206806E0CA684968206802F0E3
:1024A0002CFA6021206802F04CF9CEE7CA6849682E
:1024B000206802F011FA40212068F4E72268014602
:1024C0001046F0E770472DE9F04104460068C66801
:1024D00005694FF00007A90713D5B10711D5F91EFB
:1024E000016101202077206880698007204602D0A2
:1024F000FFF7E8FF04E000F0A9F8204600F04EF9ED
:102500002777680716D5700714D521686FF0040087
:102510000861022020772068806910F4407F2046FF
:1025200002D0FFF7CFFF04E000F090F8204600F063
:1025300035F92777280715D5300713D521686FF0AF
:1025400008000861042020772068C06980072046C1
:1025500002D0FFF7B7FF04E000F078F8204600F063
:102560001DF92777E80616D5F00614D521686FF017
:1025700010000861082020772068C06910F4407FAF
:10258000204602D0FFF79EFF04E000F05FF82046EF
:1025900000F004F92777E80708D0F00706D0216893
:1025A0006FF001000861204600F05EF9280608D5AA
:1025B000300606D521686FF0800008612046FFF7DD
:1025C00004FE680608D5700606D521686FF0400045
:1025D0000861204600F052F9A8060AD5B00608D5D1
:1025E00021686FF0200008612046BDE8F041FFF748
:1025F000EDBDBDE8F081000010B586B004461421A1
:102600006846FDF7B4FF0E492068884216D10D4890
:102610000021026842F001020260006800F001003F
:1026200005904FF4106000900220CDE901010120D7
:10263000CDE9031069460448FEF74AFE06B010BD16
:10264000000001403038024000000240704770B581
:10265000044690F83C0000260D4601280FD00120CA
:1026600084F83C006AB1042A1DD0082A2FD00C2A15
:102670003FD00126002084F83C00304670BD022087
:1026800070BD206802F066F82068816941F0080199
:1026900081612068816921F004018161206881697C
:1026A0002A69114311E0206802F084F820688169EA
:1026B00041F4006181612068816921F48061816158
:1026C000206881692A6941EA02218161D2E7206894
:1026D00002F0A6F82068C16941F00801C1612068D4
:1026E000C16921F00401C1612068C1692A691143EF
:1026F00011E0206802F0C8F82068C16941F4006167
:10270000C1612068C16921F48061C1612068C1692B
:102710002A6941EA0221C161ACE710B5040003D087
:1027200094F83D0010B107E0012010BD002084F8AE
:102730003C00204600F01EF8022084F83D00211DD8
:10274000206801F07BFF012084F8460084F83E00F9
:1027500084F83F0084F8400084F8410084F8420087
:1027600084F8430084F8440084F8450084F83D0070
:10277000002010BD08B500680649884208D1064807
:10278000016841F001010160006800F00100009063
:1027900008BD0000000001404438024070470000BE
:1027A00010B50446022249B104290ED0082913D0DD
:1027B00094F84100012816D0012010BD94F83E0085
:1027C0000128F9D184F83E200FE094F83F00012859
:1027D000F2D184F83F2008E094F840000128EBD1C2
:1027E00084F8402001E084F841200122206801F0B3
:1027F00091FF16492068164A884201D0904203D1C1
:10280000436C43F4004343642068884213D0B0F122
:10281000804F10D00F4988420DD00F4988420AD00E
:102820000E49884207D0904205D00D49884202D017
:102830000C49884204D1816801F00701062903D0C0
:10284000016841F001010160002010BD000001405D
:10285000000401400004004000080040000C00405B
:10286000004001400018004000680349884201D13F
:10287000FEF736BE704700000020004070477047EA
:1028800010B504460068406994F84110C0F3C010C8
:10289000212911D180B12068143050E8001F21F0A7
:1028A000800140E80012002AF5D1A06B08B1FEF7C4
:1028B0000BFB204602F000F92068406994F84210B2
:1028C000C0F38010222911D180B12068143050E863
:1028D000001F21F0400140E80012002AF5D1E06B12
:1028E00008B1FEF7F1FA204602F0BFF8002010BD53
:1028F00070470000F8B5016804460868CA684B696B
:1029000010F00F0F4FF0000559D003F0010602F44C
:102910009077374365D0C10705D0D10503D5616CE9
:1029200041F001016164410705D5D90703D0616C0D
:1029300041F002016164810705D5D90703D0616CBC
:1029400041F004016164010707D502F02001314321
:1029500003D0616C41F008016164616C00293AD0D8
:10296000800604D5900602D5204602F0B3F8206810
:102970004069616CC0F38010090700D460B3204641
:1029800002F073F820684069400621D520681430B1
:1029900050E8001F21F0400140E80012002AF5D164
:1029A000E06BA8B16E490165E06BFEF7D6FA00282E
:1029B00011D0E06B016D01B0BDE8F040084783061F
:1029C0000FD593060DD52046BDE8F84002F082B839
:1029D0002046FFF78DFFF8BD2046FFF789FF6564AD
:1029E000F8BD266B2023012E7DD1C6067BD5D606E9
:1029F00079D508684868009048694FF0020640069B
:102A000041D5E16B086840680004000CE8D0A28D55
:102A10008242E5D9E085C869B0F5807F2DD0206875
:102A20000C3050E8001F21F4807140E80012002AA9
:102A3000F5D12068143050E8001F21F0010140E872
:102A40000012002AF5D12068143050E8001F21F050
:102A5000400140E80012002AF5D184F84230256395
:102A600020680C3050E8001F21F0100140E80012EF
:102A7000002AF5D1E06BFEF727FA6663A08DE18DA1
:102A8000401A81B22AE0A08DE18D401A81B2E08D1A
:102A90000028A5D00029A3D022680C3252E8000FEC
:102AA00020F4907042E80007002FF5D12068143020
:102AB00050E8002F22F0010240E80027002FF5D156
:102AC00084F84230256320680C3050E8002F22F053
:102AD000100240E80023002BF5D166632046FFF783
:102AE000CEFEF8BDFFE705062BD5150629D594F8CF
:102AF00041002128F5D1A068B0F5805F01D120699F
:102B0000B0B1206A411C2162216800784860E08CE5
:102B1000401E0004000CE084E3D12068C16821F06D
:102B20008001C1602068C16841F04001C160D8E700
:102B3000206A0088C0F308004860206A801C206278
:102B4000E5E74006CDD55006CBD5CA68204622F031
:102B50004002CA6084F8413000F0B2F8C1E70000DA
:102B60006D49000870B5040004D094F841000025B8
:102B700010B106E0012070BD84F84050204600F0FE
:102B800023F8242084F841002068C16821F4005112
:102B9000C160204602F000F82068016921F49041EC
:102BA00001612068416921F02A0141612068C16802
:102BB00041F40051C1606564202084F8410084F82C
:102BC00042006563002070BD2DE9F04387B00646E2
:102BD00014216846FDF7CBFC2B493068884250D160
:102BE0002A480025016841F4002101600068274956
:102BF00000F4002010390590086840F001000860DA
:102C0000086800F001000590086840F004000860C2
:102C10000868022400F004004FF008080094CDE991
:102C2000048001AA032782E8B00069461848FEF72D
:102C30004FFB4FF4806901AACDF8009082E8B00103
:102C400069461448FEF744FB144C134820604005C5
:102C5000C4E90105C4E903596561A561E56125621F
:102C600020466562FEF75CFA08B1FDF766FFF46383
:102C7000002205213420A663FEF7CAFC3420FEF7AB
:102C8000B9FC07B0BDE8F083004C0040403802407A
:102C90000000024000080240406002405409002049
:102CA00090F84230202B01D00220704721B11AB198
:102CB0000023036301F0F6BF01207047704770479F
:102CC0007047FEE710B50F4C002201212046FEF7A9
:102CD000FCFB01F023FC002202212046FEF7F5FB5D
:102CE0000520FEF7E3FA012211462046FEF7EDFB30
:102CF0000520FEF7DBFA20460022BDE81040012146
:102D0000FEF7E3BB0008024010B501F0E5FBBDE8AB
:102D1000104001F003BC000010B50F4C002201214F
:102D20002046FEF7D2FB01F0F9FB012202212046EA
:102D3000FEF7CBFB0520FEF7B9FA0122114620462B
:102D4000FEF7C3FB0520FEF7B1FA20460022BDE8DE
:102D500010400121FEF7B9BB000802402DE9F04107
:102D60001C4615460F46804600F08EF8404600F09F
:102D70005BF800F0CDF80646F8B200F055F800F028
:102D8000C7F840EA060700F07FF808F10100C0B27A
:102D900000F04AF800F0BCF840EA070608E0012C11
:102DA0000DD0012000F00EF8641E05F8010BA4B24E
:102DB000002CF4D100F08AF83046BDE8F081002004
:102DC000F0E700002DE9F0418046002401F094FB7B
:102DD000144F0025134E1037002201213046FEF714
:102DE00074FB0520FEF762FA012211463046FEF719
:102DF0006CFB6006040E3868800701D5641CE4B2E1
:102E00000520FEF753FA6D1CEDB2082DE4D3B8F19E
:102E1000000F02D0FFF756FF01E0FFF77DFF2046CD
:102E2000BDE8F0810008024070B5054601F076FB70
:102E3000144E002201213046FEF747FB00242806ED
:102E400001D5012200E0002202213046FEF73DFBC1
:102E50006806050E0520FEF729FA012211463046C4
:102E6000FEF733FB0520FEF721FA00220121304650
:102E7000FEF72BFB0520FEF719FA641CE4B2082CC0
:102E8000DDD370BD0008024010B501F047FB0E4CC9
:102E9000012202212046FEF718FB0122114620469E
:102EA000FEF713FB0520FEF701FA0022022120465F
:102EB000FEF70BFB0520FEF7F9F920460022BDE8DE
:102EC00010400121FEF701BB0008024010B501F0DF
:102ED00025FB0E4C002201212046FEF7F6FA0022C7
:102EE00002212046FEF7F1FA0520FEF7DFF9012264
:102EF00011462046FEF7E9FA0520FEF7D7F92046ED
:102F00000122BDE810400221FEF7DFBA00080240AE
:102F100070B5002401F0F0FA0E4D0122114628464A
:102F2000FEF7D3FA0520FEF7C1F90A48103007E092
:102F3000641CE4B2FA2C03D9FFF7C8FF012070BD6E
:102F400001688907F4D4002201212846FEF7BDFA62
:102F5000002070BD0008024070B515460E460446BC
:102F6000FFF792FF2046FFF75FFFFFF7D1FF044610
:102F7000F0B2FFF759FFFFF7CBFF40EA04062846FF
:102F8000FFF752FFFFF7C4FF40EA0604FFF79EFF7A
:102F90000A20FEF78BF9204670BD000070B5F6EEF2
:102FA000000A2DED028B60EE203AD0ED005A90ED34
:102FB000015AD0ED024A90ED036AD0ED222AD0EDFD
:102FC000231A90ED242A0446DFEDA70AF5EEC02A65
:102FD000A64DF1EE10FA09D1F5EEC01AF1EE10FA95
:102FE00004D1B5EEC02AF1EE10FA5DD022EEA23A7D
:102FF00001EEA13A02EE023AB5EEC03AF1EE10FA55
:1030000002DBB1EEC31A01E0B0EE601AB0EE413A55
:10301000C1EE836AD5ED101A82EE031A95ED0F2AE0
:1030200082EE834A66EEA12A95ED0E3A41EE422ADF
:1030300021EE031A04EE611A24EE024AD5ED111AAC
:1030400006EEC34A94ED053A23EE222A63EE016AA6
:1030500042EE001AC5ED111A95ED122A06EE802AED
:1030600063EE046A85ED122A95ED133A06EE803A76
:1030700085ED133A94ED040AD4ED256A40EE221A48
:1030800000EE012A00EE043A76EEA11AC4ED251AEC
:10309000D4ED261A31EE821A84ED261A94ED271A01
:1030A00031EE030A84ED270A94ED250AB7EE007A83
:1030B00020EE234A94ED260A20EE233A94ED270AC7
:1030C00060EE232A24EE040A03EE030A02EEA20AAB
:1030D00037EE401A61EE253A21EE050A61EE241A18
:1030E00021EE062A45EE443A05EE840A45EE831A9F
:1030F00005EEA22A44EEC33A04EEA20A45EE621A95
:1031000005EE032A46EE623A06EE430A46EE041A3C
:1031100004EEC42AC4ED003A63EEA32A84ED010A4A
:10312000C4ED021A84ED032A40EE002A41EEA12AE2
:1031300042EE022AF5EEC02AF1EE10FA01DBF1EEC2
:10314000E20A83EEA01A84ED001A80EE201A81EEC6
:10315000A00A84ED011A84ED020A82EE200A84EDB1
:10316000030A03F0DDF904F158010B4604F13400C1
:1031700001F0E2FD94ED180ADFED3D0A04F14C0187
:10318000184630EE600A84ED180A01F015FE94ED41
:10319000001AD4ED010A94ED020A61EE011A60EE04
:1031A000A03A20EE003AD4ED032AF0EE004A31EEC8
:1031B000A32A22EEA24A32EE432A32EE442A85EDB9
:1031C0000C2A20EE802A01EE222A22EE242A85ED06
:1031D0000D2A20EEA22A61EE200A01EE402A40EEDE
:1031E000220A22EE242A20EEA40A85ED0E2A85ED7D
:1031F0000F0A31EEE30A12EE100A30EE430AB0F184
:103200007E5F30EE040A85ED100A01DD85ED0E7A51
:10321000A86B10F1814F02D800EE100A03E0BFEE58
:10322000000A85ED0E0A01F043FEDFED120A20EEE2
:10323000200A84ED340AD5ED100A95ED0F0A02F04C
:1032400033F99FED0D8A20EE080A84ED330AD5ED9F
:103250000C0A95ED0D0A02F027F920EE080A84ED1C
:10326000350ABDEC028B70BD000000009C00002000
:10327000CDCC1C41333365C23333654230B51A4877
:10328000022100224579437C18480124A5B1FBB1F5
:103290000470017015494378B1F90210D3B10A39AD
:1032A00009B24180002901DC428042701049B0F926
:1032B00002000968086430BD43B1032303700D4B5D
:1032C0001B78002BE5D004230370E2E70170F6E7DA
:1032D0000270DEE70A3109B24FF47A7241809142FE
:1032E000E4DB42804470E1E7380300203003002033
:1032F000340800209C0000207FB500242048009462
:10330000019402941D490394016001254FF480311A
:103310000561C0E90114047680F820401949C0E92C
:103320000A140326C661C46080F830404561FDF789
:10333000ADFC08B1FDF701FCCDE900456946104838
:103340000294FDF7FDFB08B1FDF7F7FB04200090A8
:103350000220019069460A48FDF7F2FB08B1FDF72B
:10336000ECFB0520CDE9000669460548FDF7E8FBC2
:10337000002801D0FDF7E1FB7FBD000000200140E7
:103380006C0700200100000F0D4810B50B490160CB
:103390001021416000218160C160016141610176BD
:1033A00041768176C17601774177FDF7C9FC002827
:1033B00003D0BDE81040FDF7C0BB10BD0064004065
:1033C000B4070020094808B5016841F40011016004
:1033D0000068002200F40010009005210D20FEF787
:1033E00017F9BDE808400D20FEF704B93038024057
:1033F00010B5B2B01C2227496846FDF786F80021B7
:10340000684603F0E9F9244C22491C2220601C3153
:1034100007A8FDF77AF8002107A803F0DDF91D4998
:1034200060601C2238310EA8FDF76FF800210EA84D
:1034300003F0D2F91749A0601C22543115A8FDF7FA
:1034400064F8002115A803F0C7F91249E0601C22B6
:1034500070311CA8FDF759F800211CA803F0BCF935
:103460000C4920611C228C3123A8FDF74EF8002165
:1034700023A803F0B1F9074960611C22A8312AA8EA
:10348000FDF743F800212AA803F0A6F9A06132B0A5
:1034900010BD000018880008000000202DE9F04F42
:1034A00087B014216846FDF762F83D4800240168A2
:1034B00041F004010160016801F004010591016817
:1034C00041F080010160016801F08001059101680F
:1034D00041F001010160016801F0010105910168FD
:1034E00041F0020101600068002200F00200059036
:1034F0004CF2F3312B48FDF7E8FFDFF8ACA040F2C7
:10350000CC68002241465046FDF7DFFFDFF89CB053
:103510004FF28309002249465846FDF7D6FF4CF288
:10352000C03000900125CDE9015469461D4803943F
:10353000FDF7CEFE3320CDE90005CDE90254694602
:103540001848FDF7C5FE08200226CDE9000603272E
:1035500002940520CDE9037069461248FDF7B8FED4
:10356000CDF80080CDE90154694650460394FDF73B
:10357000AFFECDF80090CDE901546946584603945A
:10358000FDF7A6FE2803CDE9000602940620CDE94A
:10359000037069460348FDF79BFE07B0BDE8F08F56
:1035A000303802400008024000000240000402409F
:1035B000104810B50E4901604FF48271416000213E
:1035C0008160C1604FF400720161C0E905122822D8
:1035D000C0E90721416281620A21C162FEF70DFB49
:1035E000002803D0BDE81040FDF7A7BA10BD0000C9
:1035F00000300140DC07002010B592B000240F9489
:103600001C2168461094FCF7B2FF202107A8FCF7A4
:10361000AEFF244822490160A721C0E901144FF4FC
:103620007A71C0E9031444618461FFF776F808B148
:10363000FDF783FA0F940FA91A481094FEF7F2FDD4
:1036400008B1FDF77AFA6020CDE9000402940394F2
:10365000049405940022694612480694FEF7F7FF89
:1036600008B1FDF76AFA0C2269460E48FEF7EFFF33
:1036700008B1FDF762FA0794089409944FF40050DA
:103680000A94CDE90B4007A906480E94FEF79FFD6A
:1036900008B1FDF752FA0348FEF7AEFF12B010BDB5
:1036A000000001403408002010B586B000241748FF
:1036B00000940194029403940494134905940160C6
:1036C0000921C0E9011440F6B731C0E9031484614F
:1036D000FEF7F0FD08B1FDF730FA4FF4805000908E
:1036E00069460A48FEF780FE08B1FDF726FA049401
:1036F00004A906480594FEF795FD002801D0FDF7C2
:103700001CFA06B010BD0000000400407C08002038
:1037100010B586B0002417480094019402940394D5
:1037200004941349059401602921C0E9011440F271
:10373000E731C0E9031444618461FEF7BBFD08B1C1
:10374000FDF7FBF94FF48050009069460948FEF7F9
:103750004BFE08B1FDF7F1F9049404A9054805945E
:10376000FEF760FD002801D0FDF7E7F906B010BDB7
:1037700000040140C408002010B50D4C0B480C217A
:1037800020600C4860600020A060E060C4E9040193
:10379000A061E0612046FFF7E5F908B1FDF7CDF93A
:1037A0002068C16841F01001C16010BD004C0040AC
:1037B0000C090020A0680600FEE710B5FFF7A4FA88
:1037C000BDE8104000F0ACB8FEE70000F0B50446DC
:1037D0002DED028B83B0012302AA06211A20FFF7E8
:1037E000BDFA06236A4600211A20FFF7B7FABDF991
:1037F0000020BDF9023000EE102ABDF90410434844
:10380000B8EEC00A84ED000A00EE103AB8EEC00A25
:1038100084ED010A00EE101AB8EEC00A84ED020A27
:1038200002804380A0F11C048180207828B162804E
:10383000E280A180218100202070608A98B9B4F9CB
:103840000200824200DD6280B4F90600824200DAA2
:10385000E280B4F90400814200DDA180B4F90800DF
:10386000814200DA2181B4F90230B4F906001D1852
:1038700005EBD5756D106581521B15B2E581181ADF
:1038800000EE100AB4F90460B4F90820B8EEC01ACA
:10389000B01A00EE100AB71807EBD777B8EEC00AD7
:1038A0007F10C91B09B2C1EE000A00EE101AA781F1
:1038B0002182B8EEC00AC4ED050A20EE800A10EE9F
:1038C000100A04F02DFF41EC180B284604F01CFDF3
:1038D00041EC100BB0EE481AF0EE681A01F0ECFC67
:1038E0009FED0B1B51EC100B53EC112B04F024FD3E
:1038F0009FED091B53EC112B04F0AEFB04F0D2FA40
:10390000A06103B0BDEC028BF0BD000014040020E8
:103910000000000000806640182D4454FB2109403F
:1039200010B501220B211A20FFF716FB402220219F
:103930001A20FFF711FB012221211A20FFF70CFBAF
:10394000012209211A20FFF707FBBDE810400220E1
:10395000FDF788BC0749012048740748817816297B
:1039600003D0142904D100F009B8401C00F0C4BBF6
:1039700070470000380300201C04002041790448EF
:103980000A29018601D2002100E00121417470471B
:1039900038030020F8B5044640684FF4827398421B
:1039A00021D1A0684FF48065B0F5004F01D0A84246
:1039B0000AD12068066826F04006066060689842D2
:1039C00011D1A068A8420ED000920B46002280219F
:1039D000204600F043F8002804D0606D40F020003D
:1039E00060650320F8BD00920B4600220121EFE73D
:1039F000F8B515460E460B460092044601220221F8
:103A000000F02CF8A0B9134813490068B0FBF1F09E
:103A10004FF47A71484300906068B0F5827F0DD111
:103A20003346002280212046009500F017F870B13F
:103A3000606D40F0200060650320F8BD009830B153
:103A4000401E009020688068C0430006F6D5002024
:103A5000F8BD00003000002000366E012DE9F8436B
:103A60001E46914688460446089DFDF733FD401BDF
:103A7000351AFDF72FFD074625480068C0F3CB3007
:103A8000684338E0701C37D0FDF724FDC01BA84206
:103A900003D215B1009860B32CE02068416821F092
:103AA000E00141606068B0F5827F0BD1A068B0F59D
:103AB000004F02D0B0F5806F04D12068016821F07A
:103AC00040010160A06AB0F5005F09D1206801687B
:103AD00021F4005101602068016841F40051016047
:103AE000012084F85100002084F850000320BDE834
:103AF000F8830025401E00902068816838EA0100A4
:103B000004D000214945BDD10020F0E70121F9E7AB
:103B10003000002010B50C461E49082C05D2DFE805
:103B200004F0070A25282B2E313491ED070A06E010
:103B30009FED190A01E09FED190A81ED070AF7EEE2
:103B4000000A80EE801A81ED071A40EA040106207F
:103B500000F098FA032C1BD9092000F0EBF940F093
:103B60000401BDE81040092000F08CBA9FED0C0A5A
:103B7000E3E79FED0C0AE0E79FED0B0ADDE79FED21
:103B80000B0ADAE79FED0A0AD7E79FED0A0AD4E7A6
:103B900010BD000010030020000000490000C049D3
:103BA0000000604A0000F04A000078480000FC482D
:103BB00000007E490000FF4910B50C461E4A082C43
:103BC00005D2DFE804F0070A26292C2F323592EDC2
:103BD000060A06E09FED190A01E09FED190A82ED41
:103BE000060AF7EE000A204380EE801A40F08001BA
:103BF000072082ED061A00F045FA032C1BD9092094
:103C000000F098F940F00801BDE81040092000F0EC
:103C100039BA9FED0C0AE2E79FED0B0ADFE79FED53
:103C20000B0ADCE79FED0A0AD9E79FED0A0AD6E7FF
:103C30009FED090AD3E710BD1003002000000049E2
:103C40000000C0490000604A0000F04A00007848C7
:103C50000000FC4800007E490000FF4910B51448F0
:103C60002DED028B90ED030AD0ED040AC0EE208A00
:103C700090ED050ADFED0F0A30EE208A00F090F992
:103C8000B0EE680A01F0D4FEDFED0B0A20EE200A48
:103C900001F0DAFDF7EE000A30EEC00ADFED070AA8
:103CA00068EE200ABDEC028B20EE200A10BD000059
:103CB0000CE400203393884341D3423EA1D81943FA
:103CC00008B503226946002000F004F99DF80000C1
:103CD0009DF80110000400EB01209DF8021008443B
:103CE000010201D540F07F4008BD08B503226946B6
:103CF000104600F0EFF89DF800009DF80110000458
:103D000000EB01209DF802100844010201D540F0AB
:103D10007F4008BD30B589212DED028B85B00C2088
:103D200000F0B0F920B90D2000F004F9102804D0FB
:103D3000012005B0BDEC028B30BDC820FDF792FA22
:103D400012226946102000F0C5F89DF800009DF889
:103D50000120000100EB121159480B05018001D52B
:103D600041F4704101809DF8021002F00F0201EB56
:103D7000022141800A0501D541F4704141809DF83E
:103D800003109DF80420090301EB02119DF80520A2
:103D900001EB1211016112079DF80630120B02EBC4
:103DA00003229DF807300C031A44464B426100D5AC
:103DB00019430161110300D51A4342619DF80910AE
:103DC0009DF8082001EB022181809DF80B109DF8E1
:103DD0000A2001EB022109B2C1800A0501D541F494
:103DE0007041C1809DF80D109DF80C2001EB02215F
:103DF00009B201810A0501D541F4704101819DF8A4
:103E00000F109DF80E2001EB022109B241810A0535
:103E100001D541F4704141819DF811109DF81020A9
:103E200001EB022109B281810A0501D541F47041FB
:103E3000818104217020FFF76DFE03213020FFF700
:103E4000BBFE072000F0A8F81420FDF70BFA1E4C6B
:103E5000002500BF00F0A4F894ED030A142084EDBF
:103E6000040A94ED020A84ED050AFDF7FBF96D1CC6
:103E7000EDB20A2DEED300259FED148ADFED148AF2
:103E800000F08EF894ED040AD4ED030A142020EE1D
:103E9000080A00EEA80A84ED040A94ED050AD4EDA0
:103EA000020A20EE080A00EEA80A84ED050AFDF7D2
:103EB000D9F96D1CEDB2142DE2D3002039E70000D2
:103EC000100300200000F0FF0CE40020CDCC4C3F9C
:103ED000CDCC4C3EF8B5154D16460F460446002293
:103EE00080212846FDF7F1FA012211032846FDF74B
:103EF000ECFA012251032846FDF7E7FA44F080006E
:103F00008DF800003223012269460948FDF7B2FF0F
:103F10003223324639460648FDF702FF012280214E
:103F20002846FDF7D2FA0020F8BD00000004024048
:103F3000DC0700201CB5164C8DF800000022802103
:103F40002046FDF7C2FA012211032046FDF7BDFA13
:103F5000012251032046FDF7B8FA9DF800003223F4
:103F600040F080008DF80000012269460948FDF705
:103F700081FF3223012201A90648FDF7D1FE01226B
:103F800080212046FDF7A1FA9DF804001CBD000029
:103F900000040240DC0700200146082000F072B84F
:103FA00010B5FFF7A2FE044C6060FFF789FE2060A9
:103FB000BDE8104000F002B80CE400202F49304862
:103FC000F6EE001A91ED010AD0ED060A90ED071AFF
:103FD000B8EEC00AB0F9002060EE200A91ED000AA8
:103FE000B8EEC00A20EE010A01EE102AB0F9022054
:103FF000B8EEC11A60EE802A21EE211A01EE902A55
:10400000F8EEE11A00EEA11A81ED021AB0F90820CB
:1040100001EE102AB0F90C20F8EEC11A01EE102AB8
:10402000B0F90620B8EEC11A40EE011A90ED051A5B
:10403000B8EEC11A00EE211A01EE902AB0F90A205A
:1040400002EE102AF8EEE11AB8EEC22A40EE021A89
:1040500090ED042AB0F90400B8EEC22A62EEA11A6B
:1040600000EE012A00EE100AB8EEC00A00EE802A27
:1040700032EE210A81ED030A704700000CE40020B3
:10408000100300207CB51A4D0E4604460022802104
:104090002846FDF71AFA012211032846FDF715FA02
:1040A000012251032846FDF710FA04F07F008DF835
:1040B00000008DF804603223012269460D48FDF7A7
:1040C000D9FE0C48FDF796FD0228FAD032230122D2
:1040D00001A90848FDF7CEFE0648FDF78BFD022832
:1040E000FAD0012280212846FDF7EFF900207CBD9F
:1040F00000040240DC0700204188C1F30A02404965
:104100000A80C2780379D20842EA4312C2F30A0253
:104110004A8002794379920942EA8302837942EA2A
:104120008322C2F30A028A808279C379520842EA62
:10413000C312C2F30A02CA80C279037A120942EAA0
:104140000312C2F30A020A81027A437AD20942EACE
:104150004302837A42EA4322C2F30A024A81827A04
:10416000C37A920842EA8312C2F30A028A81C27AAF
:10417000037B520942EAC302CA81B0F80D20C2F3A0
:104180000A020A82827BC37BD20842EA4312C2F34C
:104190000A024A82C27B037C920942EA8302437C80
:1041A00042EA8322C2F30A028A82427C837C52085A
:1041B00042EAC312C2F30A02CA82827CC37C120999
:1041C00042EA0312C2F30A020A83C27C037DD209C7
:1041D00042EA4302437D42EA4322C2F30A024A838F
:1041E000427D837D920842EA8312C2F30A028A83E7
:1041F000827DC07D520942EAC000C883704700003A
:104200004CE4002010B5124C002201212046FDF79D
:104210005CF90320FDF738F800F066F8002202216F
:104220002046FDF752F90320FDF72EF80122114632
:104230002046FDF74AF90320FDF726F80022012168
:104240002046FDF742F9BDE810400320FDF71CB8F9
:104250000008024010B5064C012202212046FDF75D
:1042600034F920460122BDE810401146FDF72DB972
:104270000008024000B585B00020019001200290A6
:1042800002200090039069460248FDF721F805B02E
:1042900000BD00000008024010B5124C00220121B0
:1042A0002046FDF712F90320FCF7EEFF00F01CF8A2
:1042B000012202212046FDF708F90320FCF7E4FF64
:1042C000012211462046FDF700F90320FCF7DCFF30
:1042D000002201212046FDF7F8F8BDE81040032038
:1042E000FCF7D2BF0008024000B585B00120019064
:1042F000029002200090039069460248FCF7E8FF14
:1043000005B000BD000802402DE9F0411B4E0746F4
:104310000024012202213046FDF7D7F8FFF7AAFF5B
:1043200000256006040E002201213046FDF7CDF87D
:104330000320FCF7A9FF012211463046FDF7C5F81E
:104340000320FCF7A1FF02213046FDF7B9F8012850
:1043500001D144F001046D1CEDB2082DE1D300221F
:1043600001213046FDF7B1F827B1FFF74BFF20469A
:10437000BDE8F081FFF790FFF9E700000008024078
:1043800010B5FFF7B1FF104C012202212046FDF7C6
:104390009CF8012211462046FDF797F80320FCF710
:1043A00073FF002202212046FDF78FF80320FCF75F
:1043B0006BFF002201212046FDF787F8BDE8104081
:1043C0000320FCF761BF00000008024010B5FFF7B2
:1043D0008BFF114C002201212046FDF776F80320C7
:1043E000FCF752FF002202212046FDF76EF8032061
:1043F000FCF74AFF012211462046FDF766F803202C
:10440000FCF742FF012202212046FDF75EF8BDE8DD
:1044100010400320FCF738BF0008024070B5FFF7DA
:1044200029FF134D012202212846FDF74EF80320F3
:10443000FCF72AFF012211462846FDF746F8032023
:10444000FCF722FF07E0641CE4B2642C03D9FFF7F9
:10445000BDFF012070BD02212846FDF731F800287C
:10446000F1D1002201212846FDF72FF8002070BD70
:104470000008024070B50546FFF736FF154E0024D0
:10448000002201213046FDF720F80320FCF7FCFE56
:10449000280601D5012200E0002202213046FDF766
:1044A00014F86806050E0320FCF7EEFE0122114603
:1044B0003046FDF70AF80320FCF7E6FE641CE4B280
:1044C000082CDDD33046BDE8704000220121FCF706
:1044D000FCBF00000008024000B585B0012001903B
:1044E000029000900220039069460248FCF7F0FE1B
:1044F00005B000BD0008024000B585B00020019065
:104500000120029002200090039069460248FCF7C7
:10451000DFFE05B000BD00000008024000B585B018
:104520000120019002900220009003906946024809
:10453000FCF7CEFE05B000BD00080240012002F0ED
:104540003FF9FBE710B5502080F31188BFF34F8F80
:10455000BFF36F8F03F0D2FB18B104494FF08050C6
:104560000860002080F3118810BD000004ED00E019
:1045700030B593B030216846FBF7F9FF14210CA841
:10458000FBF7F5FF1D480025016841F080510160EF
:10459000006800F0805011901948016841F4804192
:1045A00001600068022400F4804011900120009016
:1045B000000401908001CDE9064008AA0420A8214A
:1045C00082E813000B906846FDF75EF908B172B6F9
:1045D000FEE70CA90F2081E831004FF4A0500F90A6
:1045E0004FF48050109005210CA8FDF743F80028E7
:1045F00001D072B6FEE713B030BD00004038024073
:10460000007000400248016841F470010160704789
:1046100088ED00E00148FFF7D9B800006CE4002005
:1046200010B50448FDF74FFFBDE810400248FDF704
:104630004ABF0000C4080020B4090020F0B5026899
:10464000294C2A4D2A4E2B4F2B4B4FF0804CA04229
:1046500009D0604507D0A84205D0B04203D0B84287
:1046600001D0984204D122F0700E4A6842EA0E024C
:10467000A0421BD0604519D0A84217D0B04215D037
:10468000B84213D0984211D01C4DA8420ED01C4DF8
:10469000A8420BD01B4DA84208D01B4DA84205D004
:1046A0001A4DA84202D01A4DA84203D122F44075F7
:1046B000CA682A434D6922F080022A4302608A6850
:1046C000C2620A688262A04201D0984201D109699F
:1046D0000163012141610169C90703D0016921F02A
:1046E00001010161F0BD0000000001400004004034
:1046F00000080040000C0040000401400040014060
:10470000004401400048014000180040001C0040E7
:104710000020004010B501F01F030121046A9940F8
:104720008C430462016A9A401143016210BD10B5C6
:10473000846842EA032224F47F440A4322438260CD
:1047400010BD826822F070020A4342F007018160C6
:1047500070470000F0B5036A026A22F001020262AB
:1047600042688469124E24F073050C682C4323F0D0
:1047700002058B682B430D4DA84201D0B04205D1F4
:1047800023F00807CB683B4323F00403A84201D081
:10479000B04205D14D6922F4407215438A692A431B
:1047A00042608461496841630362F0BD00000140DA
:1047B00000040140F0B5026A036A23F010030362AB
:1047C000436884690D6824F4E64444EA05248D684E
:1047D00022F0200242EA05120F4D104EA84201D0ED
:1047E000B04206D1CF6822F0800242EA071222F0DE
:1047F0004002A84201D0B04207D14D6923F4406382
:1048000043EA85038D6943EA85034360846149680F
:1048100081630262F0BD000000000140000401401D
:10482000F0B5026A036A23F4807303624368C469C3
:1048300022F4007224F073050C68124E2C438D682C
:1048400042EA05220E4DA84201D0B04206D1CF68FF
:1048500022F4006242EA072222F48062A84201D0D8
:10486000B04207D14D6923F4405343EA05138D69E3
:1048700043EA05134360C4614968C1630262F0BD45
:10488000000001400004014030B5046A026A22F4CD
:10489000805202624268C3690D6823F4E64343EA2A
:1048A00005238D6824F4005444EA0534084DA842D9
:1048B00002D0084DA84204D14D6922F4804242EA58
:1048C00085124260C36149680164046230BD000022
:1048D000000001400004014010B5036A046A24F09E
:1048E00001040462846924F0F00444EA021423F011
:1048F0000A020A438461026210BD10B5036A046AA9
:1049000024F010040462846923F0A00324F47044AA
:1049100044EA023243EA01118261016210BD0000E3
:104920000F4808B500680168C943C90613D4016877
:10493000406800900A48FDF7A3FF0A484168491CF7
:104940004160094909780170FFF704F8FA22064925
:104950000348FEF7A5F9BDE808400148FDF7CABFC6
:104960000C0900201C0000201C04002010B5806BE6
:104970000021C185C184FDF7BBFF10BD70B5846BFC
:104980002068406994F84110C0F3C0100025212927
:1049900004D118B1E584204600F08EF82068406903
:1049A00094F84210C0F38010222904D118B1E58593
:1049B000204600F05AF8606C40F010006064204619
:1049C000FDF796FF70BD10B50146806B0968096858
:1049D0004FF00002C9052ED4C28501680C3151E8A0
:1049E000003F23F4807341E80034002CF5D10168C6
:1049F000143151E8003F23F0010341E80034002C5A
:104A0000F5D10168143151E8003F23F0400341E83B
:104A10000034002CF5D1202180F84210016B0129CF
:104A200009D101680C3151E8003F23F0100341E83F
:104A30000034002CF5D14263016B012902D0FEF74E
:104A40003DF910BD818DFDF71AFF10BD10B5806BCB
:104A500001214163016B012902D0FEF730F910BD3D
:104A6000818D4908FDF70BFF10BD01680C3151E83D
:104A7000002F22F4907241E80023002BF5D1016849
:104A8000143151E8002F22F0010241E80023002BED
:104A9000F5D1016B012909D101680C3151E8002FD2
:104AA00022F0100241E80023002BF5D1202180F8EC
:104AB000421000210163704701680C3151E8002F5A
:104AC00022F0C00241E80023002BF5D1202180F81C
:104AD0004110704708B590F84210222901D00220F9
:104AE00008BD82684FF480539A4201D1016921B117
:104AF000816A9A421BD04AB10AE00268816A526810
:104B0000C2F308020A80816A891C08E0026972B156
:104B10000268526802F07F020A70816A491C816251
:104B2000C18D491E0904090CC18503D01BE0026830
:104B30005268F1E70168CA6822F02002CA60016881
:104B4000CA6822F48072CA6001684A6922F00102D0
:104B50004A61202180F8421000214163026B012A42
:104B600003D0FEF7ABF8002008BD016301680C31EB
:104B700051E8002F22F0100241E80023002BF5D16C
:104B800001680A68D20602D50A6849680091818DD9
:104B9000FDF775FEE7E7000070B50446006801699F
:104BA000E26821F44051114301612169A068E26982
:104BB00008436169114308432168CA6849F20C63DC
:104BC0009A430243CA6020684169A26921F4407196
:104BD0001143416131492068884202D030498842FE
:104BE00002D1FCF711FE01E0FCF7FEFDE2690023B3
:104BF000192164253226B2F5004F626828D0A0FB47
:104C00000101930F9200FBF709FC0146B0FBF5F0A0
:104C10006FF01802504301EB800006EB0010B0FB70
:104C2000F5F000F0F002B1FBF5F002EB0012B1FB81
:104C3000F5F06FF01803584301EB800006EB00100D
:104C4000B0FBF5F000F00F0021681044886070BDE3
:104C5000A0FB010192185B41FBF7E0FB0146B0FBB2
:104C6000F5F00201B1FBF5F06FF01803584301EBCA
:104C7000800006EBC000B0FBF5F000F0F80002EB9E
:104C80004002B1FBF5F0584301EB800006EBC00099
:104C9000B0FBF5F000F00700D6E70000001001407F
:104CA0000014014038B58162044682850020134615
:104CB0006064222284F84220E56B1B4AEA63E56BBC
:104CC0001A4A2A64E56B1A4AEA64E26B10650A46DE
:104CD0002168E06B091DFCF78DFA206801684068C7
:104CE0000090206948B120680C3050E8001F41F462
:104CF000807140E80012002AF5D12068143050E895
:104D0000001F41F0010140E80012002AF5D120689F
:104D1000143050E8001F41F0400140E80012002A22
:104D2000F5D1002038BD0000C74900084D4A0008F1
:104D30007D490008FEE700001E4A90ED000AD2ED12
:104D4000000A92ED011A20EE200AD0ED010A00EED1
:104D5000810AD0ED020A92ED021A00EE810A81ED7D
:104D6000000A90ED000AD2ED030A92ED041A20EE3B
:104D7000200AD0ED010A00EE810AD0ED020A92ED80
:104D8000051A00EE810A81ED010A90ED000AD2EDCC
:104D9000060A92ED071A20EE200AD0ED010A00EE75
:104DA000810AD0ED020A92ED081A00EE810A81ED27
:104DB000020A7047344700201E4A90ED000AD2EDE7
:104DC000000A92ED011A20EE200AD0ED010A00EE51
:104DD000810AD0ED020A92ED021A00EE810A81EDFD
:104DE000000A90ED000AD2ED030A92ED041A20EEBB
:104DF000200AD0ED010A00EE810AD0ED020A92ED00
:104E0000051A00EE810A81ED010A90ED000AD2ED4B
:104E1000060A92ED071A20EE200AD0ED010A00EEF4
:104E2000810AD0ED020A92ED081A00EE810A81EDA6
:104E3000020A70475847002003B4019841000098C7
:104E400050EAC12018BF04204A0D18BF40F00100ED
:104E500040F2FF72B2EB515F08BF40F00200012840
:104E600008BF052002B070474100080218BF0420A7
:104E70000A0E18BF40F001004FF07F4232EA0101F4
:104E800008BF40F00200012808BF0520704709074D
:104E9000090E002804DB00F1E02080F800147047C0
:104EA00000F00F0000F1E02080F8141D70470000B2
:104EB00010B54FF00E402DED028BB0EE408A18EE8B
:104EC000104A00EB4400B0F1506F4AD84FF0FC405C
:104ED000B0EB440F22D2B0EEC80AF7EE000A30EE73
:104EE000C00AF6EE000A60EE208A18EE900A02F080
:104EF00007F901EE100A14F0004F1DBFDFED2D0A77
:104F00009FED2D0AB1EE411ADFED2C0A08BF9FED8F
:104F10002C0AF8EE001A21EE218A05E0DFED290ABD
:104F200068EE088AB0EE600A9FED271ADFED271AB7
:104F300030EE080A48EE811A9FED251A08EEA11AF4
:104F4000DFED241A48EE811A9FED231A08EEA11A0C
:104F500068EE281ABDEC028B01EE810A30EE200AC1
:104F600010BD4FF0E440B0EB440F0CD918EE100A1E
:104F7000FFF77AFF042808BF00F08EFFB0EE480A62
:104F8000BDEC028B10BD4FF07F40B0EB440F07D259
:104F9000B0EE480ABDEC028BBDE8104000F066BFE1
:104FA0000120FBF766FBBDEC028BBDE8104000F072
:104FB00063BF00000000C9BF22AAFDB90000C93FBD
:104FC00022AAFD390000000024FE1C3DC78AD83CFF
:104FD0001E67383D1B93993DAFAA2A3E0000000092
:104FE00070B59B482DED020B2DED068B079D25F02E
:104FF0000044A04218DC9748844202DC0AD106989B
:1050000040B19DED060BBDEC068B02B0BDE87040D3
:1050100000F0FEBE002DCCBF9FED8F0B9FED900BDF
:10502000BDEC068B02B070BD8F48A04215DD8F48E5
:10503000A042D8BF4FF0FF3458DD9DED060B51EC78
:10504000100BFFF7F9FE042808BF00F0F5FE9DEDF8
:10505000060BBDEC068B02B070BD9DED060B51EC4E
:10506000100B01F008FACDE9060181489FED828B13
:10507000A0423CDD8248A0421FDD00249FED82ABB0
:105080009DED060B53EC1A2B51EC100B02F03CFF7C
:105090009DED060B41EC190B53EC1A2B51EC100B48
:1050A00003F04AF953EC182B03F050FA53EC192B88
:1050B00002F0D2FFCDE9060149E09DED060B012487
:1050C00053EC182B51EC100B02F01EFF9DED060B5C
:1050D00041EC190B53EC182B51EC100B03F036FA82
:1050E00053EC192B02F0B8FFCDE906012FE0684818
:1050F000A0421FDD02249FED689B9DED060B53EC43
:10510000192B51EC100B03F017F953EC182B02F08C
:10511000FBFE9DED060B41EC180B53EC192B51ECEB
:10512000100B03F013FA53EC182B02F095FFCDE9A6
:1051300006010CE09DED060B032453EC102B9FEDB4
:10514000580B51EC100B02F087FFCDE906019DEDE5
:10515000060B53EC102B51EC100B03F0EDF841EC67
:10516000180B53EC182B03F0E7F841EC190B4E48E1
:105170000621B0EE490AF0EE690A784400F0CCFD51
:1051800053EC182B51EC100B03F0D6F841EC180B34
:105190004648B0EE490AF0EE690A0521784400F06D
:1051A000BBFD53EC192B51EC100B03F0C5F841EC8F
:1051B000100B51EC180B53EC102B002C0EDA02F0F4
:1051C000A3FE9DED061B53EC112B03F0B5F89DEDEE
:1051D000061B53EC112B03F0ADF935E002F094FE01
:1051E0009DED061B53EC112B03F0A6F841EC100BC0
:1051F0002F48784400EBC40090ED001B51EC100BDD
:1052000053EC112B03F0A2F99DED061B53EC112B6F
:1052100003F09CF941EC100B2648784400EBC400E5
:1052200090ED001B51EC100B53EC112B03F082F9A5
:1052300041EC100B002DA2BFBDEC068B02B070BD7F
:1052400051EC100B02F022FE41EC100B01E70000C4
:10525000000010440000F07F182D4454FB21F93F5A
:10526000182D4454FB21F9BF0000DC3F0000203E14
:105270000000F33F00000000000000000000F03FCD
:105280000000E63F000000000000000000000040B9
:105290000080034000000000000000000000F83F14
:1052A000000000000000F0BF5A3800001038000075
:1052B0009A3700005237000070B56B4E2DED040B8D
:1052C0002DED028B82B0DDF81CC0DDE905235C42C8
:1052D0002CF000411C4341EAD474049D22F00040AC
:1052E000B44205D86C422C4340EAD474B4420BD982
:1052F0009DED061B9DED040B02B0BDEC028B04B0CE
:10530000BDE8704000F08EBDACF14054A4F17F6464
:105310001C430BD0022404EAAC7444EAD274054363
:105320009FED538B9FED542B07D015E09DED040BA3
:1053300051EC100B00F0AEFE42E0002C11BF012C2E
:105340009DED040B02B0BDEC028B04BF04B070BD38
:10535000022C38D0032C3BD00B439FED491B9FED13
:105360004A0B0AD0B14218D1B04209D121F0804194
:1053700020F08040079105900FE0002A15DA10E038
:10538000434B7B44002C08BF93ED000B0DD0012C48
:1053900010D0022C17D0032C1AD0B0421DD1002AF5
:1053A00003DAB0EE410AF0EE610A02B0BDEC028B06
:1053B00004B070BD93ED000B51EC100B02F066FDD4
:1053C00041EC100BF1E7B0EE480AF0EE680AECE7AA
:1053D000B0EE420AF0EE620AE7E7401A00153C28F8
:1053E000C8BF8DED000B19DCBCF1000FBEBF10F182
:1053F0003C0F9FED290B8DED000B0FDB9DED060B98
:1054000053EC102B9DED040B51EC100B02F024FE1D
:1054100001F031F800F03EFECDE90001002C08BF9C
:105420009DED000BC1D0012C10D0022C9FED1C0B68
:1054300053EC102B9DED000B51EC100B0DD003F035
:1054400085F853EC182B03F081F8B9E7019880F048
:10545000004001909DED000BA7E703F077F853ECB7
:10546000182B03F067F8ABE70000F07F00000000A6
:10547000182D4454FB210940182D4454FB2109C028
:10548000182D4454FB21F9BF182D4454FB21F93F3A
:105490008236000000000000000000000000000054
:1054A000075C143326A6A13C10EE100A10B510EECE
:1054B000901A4FF0684202EB40032DED028BB3F1DE
:1054C000654F3CBF02EB4102B2F1654F7CD200BF99
:1054D000C0F3C753C1F3C7529A1A1B2A09DD10F053
:1054E000004F14BF9FED6E0A9FED6E0ABDEC028B5C
:1054F00010BD12F11A0F1BDA11F0004F09D010F095
:10550000004F0CBF9FED680A9FED680ABDEC028B4F
:1055100010BD80EE208A18EE100AFFF7A5FC0428C3
:1055200008BF00F0B9FCB0EE480ABDEC028B10BD1C
:105530004200B2EB410F37D910F0004F19BFDFED39
:105540005C1A9FED5C1ADFED5C1A9FED5C1AB0EE01
:10555000602A0A46F1EE400A80F00041B0EE420AAD
:1055600010460A1A5200B2F1807F34D2484010F03F
:10557000004FDFED532A9FED533A1DBFBEEE002AC8
:1055800071EEE21A31EE431AB6EE002A04BF71EE54
:10559000A21A31EE031AF0EE402A42EE602A40EEE3
:1055A000020A82EEA02A18E011F0004F04BF9FED1E
:1055B000461AF0EE411AD4D010F0004F1CBFDFEDB8
:1055C000431A9FED431A00E026E004BFDFED411AC5
:1055D0009FED411AC5E780EE202A22EE020ADFED98
:1055E0003F0ADFED3F2ABDEC028B40EE202ADFEDC3
:1055F0003D0A40EE220ADFED3C2A40EE202ADFED94
:105600003B0A40EE220A22EE000A00EE201A31EE9A
:10561000020A30EE210A10BD4FF07F42B2EB400F7C
:1056200028BFB2EB410F05D2BDEC028BBDE81040A4
:1056300000F01FBC40EA01035B0008BF41F0FF41DE
:105640000BD0B2EB400F08BFB2EB410F08D120F0F6
:10565000804000EE100A21F0804100EE901A37E7FA
:10566000B2EB400F12BF5FEA410240F0FF4001F091
:1056700000413FF42DAF4A0092EA40033FF528AFC6
:10568000002AACBF9FED1A1A9FED1A1A20EE010AEC
:1056900060EE810A10EE100A10EE901A18E7000072
:1056A000DB0FC9BFDB0FC93FDB0F4940DB0F49C030
:1056B0000000C9BF22AAFDB90000C93F22AAFD39D6
:1056C0000060ED3EC30ACE3700000000000049C074
:1056D00022AA7DBA0000494022AA7D3A2DAD65BDBF
:1056E0008FB8D53D0FB511BE61C84C3EA8AAAABE61
:1056F0000000804F0000802F10EE101A08B5444AB9
:105700006846B2EB410F28D94FF0E640B0EB410FAD
:1057100094BF00204FF0FF3000900098002861DB1C
:1057200060EE000A10F0010F45D010F0020FDFED1F
:10573000391A9FED391A00EEE11ADFED381A40EE02
:10574000811A21EEA01AF0EE400A40EE010A08BFCD
:10575000F1EE600AB0EE600A08BD314B21F0004264
:1057600093423CD911F0004FDFED2E0A20EE201AB3
:10577000DFED2D0A19BF31EE601A71EE200A31EE0D
:10578000201A71EE600ABDEEE01A11EE100A9FEDCC
:10579000271A00F0030000EEC10A9FED251A0090C1
:1057A00000EEC10A9FED231A00EEC10A9FED221AF6
:1057B00000EEC10AB1E79FED211A9FED210A10F01A
:1057C000020F00EE810A9FED1F1A00EE801AB7EE5D
:1057D000000A00EE810A18BFB1EE400A08BD00F0D1
:1057E00063FB9AE710EE100A4000B0F17F4F3CBF18
:1057F000B7EE000A08BD07D14FF00100FAF739FFF4
:10580000BDE8084000F038BBBDE8084000F02EBB02
:10581000B61F927E336D4C39DA82083CA0AA2ABEAC
:10582000490E494683F9223F0000004B0000C93F62
:1058300000A0FD390020A2331A61342CB93AB2BA63
:10584000CA9F2A3DDDFFFFBE10B510EE104A4FF093
:1058500019406849002200EB44002DED028B88427C
:1058600057D8DFED650A14F0004F60EE200A14BF30
:10587000BEEE001AB6EE001A71EE200AFDEEE00A46
:1058800010EE900A00EE900AF8EEE00A9FED5B1A27
:1058900000EEC10A9FED5A1A00EEC10ADFED590A67
:1058A0009FED591A00EE201ADFED580A40EE010A6A
:1058B0009FED571A574B00F0030100EE201A21EE1E
:1058C000000A7B4403EB8103D3ED000A524B7B4477
:1058D00003EB810393ED001A504B41EE000A7B4429
:1058E00003EB8101801091ED000A70EE800AEABBA3
:1058F00000EE100AB8EEC01ADFED491A9FED490A12
:10590000BDEC028B01EE210ABCEEC00A20EE200A9B
:1059100010BD4FF0FF40A0431BD04FF0CE40B0EB86
:10592000440F82BFB7EE000ABDEC028B10BD3E48AB
:10593000B0EB440F28BF012293D20220FAF799FE60
:1059400014F0004F15D0BDEC028BBDE8104000F004
:10595000A3BA14F5000F02BF9FED340ABDEC028B11
:1059600010BDBDEC028BBDE8104000E007E000F088
:105970007DBABDEC028BBDE8104000F085BA00EBAB
:10598000D07359104FF07E5202EBC15100EE101A45
:10599000A0EB630002EBC05060EE200A00EE100A9C
:1059A00020EE208A18EE100A88B118EE100AB0F125
:1059B000FF4F15D018EE100AFFF756FA042808BF5B
:1059C00000F06AFAB0EE480ABDEC028B10BD02206E
:1059D000FAF74FFEBDEC028BBDE8104000F05CBA58
:1059E0000220FAF746FEBDEC028BBDE8104000F045
:1059F0004BBA00000000501E3BAAB8400070313E78
:105A0000F4FD053712BB2A3D12BB2A3EFFFFFF3EC5
:105A1000FFFF7F3F463000004A3000001A30000090
:105A20000000004B00007E4E0000A085000000003A
:105A300010EE100A10B50023A0F50001B1F1FE4FE1
:105A400067D200BF00F500216FF07E0202EBE15C3F
:105A5000C1F302524FF07E5101EB025100EE901A59
:105A6000A0EBCC5003EB0C0100EE100A51EA02004F
:105A700036D030EE601A70EE200A9FED3D2A3E4887
:105A800081EE200A9FED3B1A60EE000A00EE821ABA
:105A900060EE201A61EE810A784401EE101A00EBE4
:105AA00082009FED362AB8EEC11AD0ED001A3448B4
:105AB00041EE021A784401EE101A00EB8200B8EEB3
:105AC000C11A90ED002ADFED2F2A01EE222AB0EE56
:105AD000001A72EE200A40EE010A31EEA00A10BD53
